{"address":"0x6CeDcF4793769117bB0E87aEb48019AE7995ED33","bytecode":"0x60806040527307c725d58437504ca5f814ae406e70e21c5e8e9e6000806101000a81548173ffffffffffffffffffffffffffffffffffffffff021916908373ffffffffffffffffffffffffffffffffffffffff16021790555073a2025b15a1757311bfd68cb14eaefcc237af5b43600160006101000a81548173ffffffffffffffffffffffffffffffffffffffff021916908373ffffffffffffffffffffffffffffffffffffffff16021790555073368eedf3f56ad10b9bc57eed4dac65b26bb667f6600260006101000a81548173ffffffffffffffffffffffffffffffffffffffff021916908373ffffffffffffffffffffffffffffffffffffffff160217905550739be876c6dc42215b00d7efe892e2691c3bc35d10600360006101000a81548173ffffffffffffffffffffffffffffffffffffffff021916908373ffffffffffffffffffffffffffffffffffffffff160217905550735bed0810073cc9f0dacf73c648202249e87ef6cb600460006101000a81548173ffffffffffffffffffffffffffffffffffffffff021916908373ffffffffffffffffffffffffffffffffffffffff1602179055503480156101b857600080fd5b50611195806101c86000396000f3fe608060405234801561001057600080fd5b50600436106100625760003560e01c80633540302314610067578063394c248d14610097578063427bf916146100b5578063573512f0146100d3578063cb72e73b146100f1578063ee567cd91461010f575b600080fd5b610081600480360381019061007c9190610929565b61012d565b60405161008e9190610971565b60405180910390f35b61009f610728565b6040516100ac91906109cd565b60405180910390f35b6100bd61074e565b6040516100ca91906109cd565b60405180910390f35b6100db610772565b6040516100e891906109cd565b60405180910390f35b6100f9610798565b60405161010691906109cd565b60405180910390f35b6101176107be565b60405161012491906109cd565b60405180910390f35b60008060028361013d9190610a17565b9050600160009054906101000a900473ffffffffffffffffffffffffffffffffffffffff1673ffffffffffffffffffffffffffffffffffffffff166323b872dd3330620f42408761018e9190610a17565b6040518463ffffffff1660e01b81526004016101ac93929190610a80565b6020604051808303816000875af11580156101cb573d6000803e3d6000fd5b505050506040513d601f19601f820116820180604052508101906101ef9190610ae3565b506000600260009054906101000a900473ffffffffffffffffffffffffffffffffffffffff1673ffffffffffffffffffffffffffffffffffffffff166335ea6a75600160009054906101000a900473ffffffffffffffffffffffffffffffffffffffff166040518263ffffffff1660e01b815260040161026f91906109cd565b6101e060405180830381865afa15801561028d573d6000803e3d6000fd5b505050506040513d601f19601f820116820180604052508101906102b19190610e41565b90506000600460009054906101000a900473ffffffffffffffffffffffffffffffffffffffff1673ffffffffffffffffffffffffffffffffffffffff1663b3596f0760008054906101000a900473ffffffffffffffffffffffffffffffffffffffff166040518263ffffffff1660e01b815260040161033091906109cd565b602060405180830381865afa15801561034d573d6000803e3d6000fd5b505050506040513d601f19601f820116820180604052508101906103719190610e6f565b905060006305f5e100826103859190610ecb565b9050600061039684600001516107e4565b9050600160009054906101000a900473ffffffffffffffffffffffffffffffffffffffff1673ffffffffffffffffffffffffffffffffffffffff1663095ea7b3600260009054906101000a900473ffffffffffffffffffffffffffffffffffffffff16620f4240886104089190610a17565b6040518363ffffffff1660e01b8152600401610425929190610efc565b6020604051808303816000875af1158015610444573d6000803e3d6000fd5b505050506040513d601f19601f820116820180604052508101906104689190610ae3565b50600260009054906101000a900473ffffffffffffffffffffffffffffffffffffffff1673ffffffffffffffffffffffffffffffffffffffff1663617ba037600160009054906101000a900473ffffffffffffffffffffffffffffffffffffffff16620f4240886104d99190610a17565b3060006040518563ffffffff1660e01b81526004016104fb9493929190610f6a565b600060405180830381600087803b15801561051557600080fd5b505af1158015610529573d6000803e3d6000fd5b505050506000612710828961053e9190610a17565b6105489190610ecb565b90506000600260038361055b9190610a17565b6105659190610ecb565b9050600084826105759190610ecb565b905061059b6040518060800160405280604e8152602001611112604e9139828a86610819565b600260009054906101000a900473ffffffffffffffffffffffffffffffffffffffff1673ffffffffffffffffffffffffffffffffffffffff1663a415bcad60008054906101000a900473ffffffffffffffffffffffffffffffffffffffff16670de0b6b3a76400008461060e9190610a17565b60026000306040518663ffffffff1660e01b8152600401610633959493929190610fea565b600060405180830381600087803b15801561064d57600080fd5b505af1158015610661573d6000803e3d6000fd5b5050505060008054906101000a900473ffffffffffffffffffffffffffffffffffffffff1673ffffffffffffffffffffffffffffffffffffffff1663a9059cbb33670de0b6b3a7640000846106b69190610a17565b6040518363ffffffff1660e01b81526004016106d3929190610efc565b6020604051808303816000875af11580156106f2573d6000803e3d6000fd5b505050506040513d601f19601f820116820180604052508101906107169190610ae3565b50600198505050505050505050919050565b600460009054906101000a900473ffffffffffffffffffffffffffffffffffffffff1681565b60008054906101000a900473ffffffffffffffffffffffffffffffffffffffff1681565b600160009054906101000a900473ffffffffffffffffffffffffffffffffffffffff1681565b600360009054906101000a900473ffffffffffffffffffffffffffffffffffffffff1681565b600260009054906101000a900473ffffffffffffffffffffffffffffffffffffffff1681565b600060107fffffffffffffffffffffffffffffffffffffffffffffffffffffffff0000ffff19836000015116901c9050919050565b6108b58484848460405160240161083394939291906110c5565b6040516020818303038152906040527fa7a87853000000000000000000000000000000000000000000000000000000007bffffffffffffffffffffffffffffffffffffffffffffffffffffffff19166020820180517bffffffffffffffffffffffffffffffffffffffffffffffffffffffff83818316178352505050506108bb565b50505050565b60008151905060006a636f6e736f6c652e6c6f679050602083016000808483855afa5050505050565b6000604051905090565b600080fd5b6000819050919050565b610906816108f3565b811461091157600080fd5b50565b600081359050610923816108fd565b92915050565b60006020828403121561093f5761093e6108ee565b5b600061094d84828501610914565b91505092915050565b60008115159050919050565b61096b81610956565b82525050565b60006020820190506109866000830184610962565b92915050565b600073ffffffffffffffffffffffffffffffffffffffff82169050919050565b60006109b78261098c565b9050919050565b6109c7816109ac565b82525050565b60006020820190506109e260008301846109be565b92915050565b7f4e487b7100000000000000000000000000000000000000000000000000000000600052601160045260246000fd5b6000610a22826108f3565b9150610a2d836108f3565b9250817fffffffffffffffffffffffffffffffffffffffffffffffffffffffffffffffff0483118215151615610a6657610a656109e8565b5b828202905092915050565b610a7a816108f3565b82525050565b6000606082019050610a9560008301866109be565b610aa260208301856109be565b610aaf6040830184610a71565b949350505050565b610ac081610956565b8114610acb57600080fd5b50565b600081519050610add81610ab7565b92915050565b600060208284031215610af957610af86108ee565b5b6000610b0784828501610ace565b91505092915050565b600080fd5b6000601f19601f8301169050919050565b7f4e487b7100000000000000000000000000000000000000000000000000000000600052604160045260246000fd5b610b5e82610b15565b810181811067ffffffffffffffff82111715610b7d57610b7c610b26565b5b80604052505050565b6000610b906108e4565b9050610b9c8282610b55565b919050565b600081519050610bb0816108fd565b92915050565b600060208284031215610bcc57610bcb610b10565b5b610bd66020610b86565b90506000610be684828501610ba1565b60008301525092915050565b60006fffffffffffffffffffffffffffffffff82169050919050565b610c1781610bf2565b8114610c2257600080fd5b50565b600081519050610c3481610c0e565b92915050565b600064ffffffffff82169050919050565b610c5481610c3a565b8114610c5f57600080fd5b50565b600081519050610c7181610c4b565b92915050565b600061ffff82169050919050565b610c8e81610c77565b8114610c9957600080fd5b50565b600081519050610cab81610c85565b92915050565b610cba816109ac565b8114610cc557600080fd5b50565b600081519050610cd781610cb1565b92915050565b60006101e08284031215610cf457610cf3610b10565b5b610cff6101e0610b86565b90506000610d0f84828501610bb6565b6000830152506020610d2384828501610c25565b6020830152506040610d3784828501610c25565b6040830152506060610d4b84828501610c25565b6060830152506080610d5f84828501610c25565b60808301525060a0610d7384828501610c25565b60a08301525060c0610d8784828501610c62565b60c08301525060e0610d9b84828501610c9c565b60e083015250610100610db084828501610cc8565b61010083015250610120610dc684828501610cc8565b61012083015250610140610ddc84828501610cc8565b61014083015250610160610df284828501610cc8565b61016083015250610180610e0884828501610c25565b610180830152506101a0610e1e84828501610c25565b6101a0830152506101c0610e3484828501610c25565b6101c08301525092915050565b60006101e08284031215610e5857610e576108ee565b5b6000610e6684828501610cdd565b91505092915050565b600060208284031215610e8557610e846108ee565b5b6000610e9384828501610ba1565b91505092915050565b7f4e487b7100000000000000000000000000000000000000000000000000000000600052601260045260246000fd5b6000610ed6826108f3565b9150610ee1836108f3565b925082610ef157610ef0610e9c565b5b828204905092915050565b6000604082019050610f1160008301856109be565b610f1e6020830184610a71565b9392505050565b6000819050919050565b6000819050919050565b6000610f54610f4f610f4a84610f25565b610f2f565b610c77565b9050919050565b610f6481610f39565b82525050565b6000608082019050610f7f60008301876109be565b610f8c6020830186610a71565b610f9960408301856109be565b610fa66060830184610f5b565b95945050505050565b6000819050919050565b6000610fd4610fcf610fca84610faf565b610f2f565b6108f3565b9050919050565b610fe481610fb9565b82525050565b600060a082019050610fff60008301886109be565b61100c6020830187610a71565b6110196040830186610fdb565b6110266060830185610f5b565b61103360808301846109be565b9695505050505050565b600081519050919050565b600082825260208201905092915050565b60005b8381101561107757808201518184015260208101905061105c565b83811115611086576000848401525b50505050565b60006110978261103d565b6110a18185611048565b93506110b1818560208601611059565b6110ba81610b15565b840191505092915050565b600060808201905081810360008301526110df818761108c565b90506110ee6020830186610a71565b6110fb6040830185610a71565b6111086060830184610a71565b9594505050505056fe547279696e6720746f20626f72726f77202573206c696e6b20616674657220616464696e6720257320555344432e20557365727320656c696769626c6520626f72726f7720616d6f756e74206973a2646970667358221220ce5595d9c0b223212c7309157d51cf9246bdcff8d14d8256a73db164cd34493264736f6c634300080a0033","abi":[{"inputs":[],"name":"aaveOracleAddress","outputs":[{"internalType":"address","name":"","type":"address"}],"stateMutability":"view","type":"function"},{"inputs":[],"name":"aavePoolAddress","outputs":[{"internalType":"address","name":"","type":"address"}],"stateMutability":"view","type":"function"},{"inputs":[],"name":"borrowTokenAddress","outputs":[{"internalType":"address","name":"","type":"address"}],"stateMutability":"view","type":"function"},{"inputs":[],"name":"dataProviderAddress","outputs":[{"internalType":"address","name":"","type":"address"}],"stateMutability":"view","type":"function"},{"inputs":[{"internalType":"uint256","name":"_userAmount","type":"uint256"}],"name":"supply","outputs":[{"internalType":"bool","name":"","type":"bool"}],"stateMutability":"nonpayable","type":"function"},{"inputs":[],"name":"supplyTokenAddress","outputs":[{"internalType":"address","name":"","type":"address"}],"stateMutability":"view","type":"function"}]}